:020000040800F2
:1000000000000220A51400088111000883110008D7
:100010008511000887110008891100080000000000
:100020000000000000000000000000008B1100082C
:100030008D110008000000008F11000891110008C8
:10004000F5140008F5140008F5140008F51400086C
:10005000F5140008F514000899110008F5140008BB
:10006000F5140008F5140008F5140008F51400084C
:10007000F5140008F5140008F5140008F51400083C
:10008000A5110008F5140008F51400080000000090
:10009000000000000000000000000000F51400084F
:1000A000F5140008F5140008F5140008F51400080C
:1000B000F5140008F5140008F5140008F5140008FC
:1000C000F5140008F5140008F5140008F5140008EC
:1000D000F5140008F5140008F514000800000000ED
:1000E000F5140008F5140008F514000800000000DD
:1000F000000000000000000000000000F5140008EF
:1001000000000000F5140008F5140008F5140008BC
:1001100000000000000000000000000000000000DF
:10012000F5140008F5140008F5140008F51400088B
:10013000F5140008000000000000000000000000AE
:10014000000000000000000000000000B5110008E1
:10015000F5140008F5140008F5140008F51400085B
:10016000F5140008F514000800000000000000006D
:10017000000000000000000000000000000000007F
:1001800000000000F514000800000000000000005E
:08019000F5140008F514000845
:1001C00053B94AB9002908BF00281CBF4FF0FF31BE
:1001D0004FF0FF3000F00CB8ADF1080C6DE904CE23
:1001E00008F0CAFFDDF804E0DDE9022304B070473F
:1001F000704700BF00000000000000000000000089
:1002000030B490F800F020F007016FF0000C10F00F
:10021000070491F820F040F048804FF000046FF0A0
:100220000700D1E9002391F840F000F1080082FABC
:100230004CF2A4FA8CF283FA4CF3A2FA8CF34BBB87
:10024000D1E9022382FA4CF200F10800A4FA8CF200
:1002500083FA4CF3A2FA8CF3E3B9D1E9042382FACE
:100260004CF200F10800A4FA8CF283FA4CF3A2FAE3
:100270008CF37BB9D1E9062301F1200182FA4CF21B
:1002800000F10800A4FA8CF283FA4CF3A2FA8CF382
:10029000002BC6D0002A04BF04301A4612BAB2FAA4
:1002A00082F200EBD20030BC7047D1E9002304F0A9
:1002B0000305C4F100004FEAC50514F0040F91F8DE
:1002C00040F00CFA05F562EA05021CBF63EA05037B
:1002D00062464FF00004AAE70348044B834202D071
:1002E000034B03B118477047A4050020A405002064
:1002F000000000000548064B1B1AD90F01EBA301B3
:10030000491002D0034B03B118477047A4050020E1
:10031000A40500200000000010B5064C237843B966
:10032000FFF7DAFF044B13B10448AFF30080012359
:10033000237010BDA40500200000000098A4000850
:1003400008B5054B1BB105490548AFF30080BDE872
:100350000840FFF7CFBF00BF00000000A805002045
:1003600098A4000808B50B4B0B4A1A60D16921F418
:100370008061D16158610022DA619A61DA604FF4DC
:100380000071196159609A60184603F0D9F800B1FC
:10039000012008BD20060020003C004038B505467D
:1003A0000C460C4B1B68DB688AB2014694209847C8
:1003B00068B9B4F5003F02D2C4F34F0201E04FF632
:1003C000FF722946044803F089F9002038BD012056
:1003D000FCE700BF680600202006002008B5064B99
:1003E0001B681B699420984708B1012008BD034889
:1003F00003F0E2F90020F9E768060020200600205B
:1004000008B5064B1B685B699420984708B101202A
:1004100008BD034803F010FA0020F9E76806002041
:100420002006002010B504460C4803F05FFA0C4B80
:100430001B689B6921469420984760B9012C01D024
:10044000002010BD012001F0A9F80022102105486C
:1004500001F024FDF4E70120F3E700BF20060020AF
:1004600068060020000C024008B50146044B1B68DA
:100470001B6A9420984708B1012008BD0020FCE7C2
:100480006806002010B586B0FF24002301E0013388
:10049000DBB2072B06D8154A52F823208A42F6D140
:1004A0001C46F4E7684604F06DF914F0070F10D10C
:1004B00001230093082301930D4B53F8243002933A
:1004C0000C4B53F824300393684604F0A3F806B0AD
:1004D00010BD01230093082301934FF4817302930D
:1004E00003230393684604F095F8F0E7F0A40008AE
:1004F000D0A40008B0A40008F0B58BB006460025D3
:1005000000953E4C236C43F400432364236C03F4B6
:1005100000430093009B0195236B43F00403236386
:10052000236B03F004030193019B0295236B43F0BB
:1005300001032363236B03F001030293029B4FF437
:10054000A053059302230693079508930623099366
:100550002B4F05A9384601F031FB1023059305A95F
:10056000284801F02BFB0395236B43F0040323631E
:10057000236B03F004030393039B8023059305A9D6
:10058000384601F01BFB0495236B43F400132363EF
:10059000236B03F400130493049B32681A4B9A42B2
:1005A00009D000220E212F2001F052F82F2001F057
:1005B0005FF80BB0F0BD154C65604022A260E560AD
:1005C0004FF4806222614FF4006262614FF4005286
:1005D000A261E5614FF400322262042262620322CA
:1005E000A262E56225630A4B2360B463A6632046DA
:1005F00001F044F9204601F0DBF8D2E70038024070
:100600000008024000000240003C0040C0050020FD
:10061000B86002402DE9F04106460F461446174DDA
:10062000002221462846FFF72DFF154B2B60284658
:1006300003F04AFB70B12046FFF794FE0546C8B9A7
:10064000104B9B689420984700F0F800E02806D0F3
:10065000012510E000212846FFF74EFFEBE7094B8C
:10066000094A1360D3F8008023463A463146942065
:10067000C04700E001252846BDE8F08120060020A3
:10068000003C0040080000206806002008B5026811
:10069000034B9A4200D008BD00F0E8FEFBE700BF24
:1006A000003C004008B50268034B9A4200D008BDE8
:1006B00000F0EAFEFBE700BF003C0040704700008E
:1006C00008B50268034B9A4200D008BDFFF7F6FF59
:1006D000FBE700BF003C004030B589B00025019524
:1006E0001D4C236C43F400132364236C03F40013A8
:1006F0000193019B0295236B43F002032363236B59
:1007000003F002030293029B4FF41073039312232E
:1007100004930595022306930423079303A90F4826
:1007200001F04CFA236A43F400132362236A23F492
:10073000001323622A460F211F2000F089FF1F208B
:1007400000F096FF2A460F21202000F081FF202094
:1007500000F08EFF09B030BD0038024000040240B6
:1007600010B50E4802F0C0FE00B110BD0B4C0C4B92
:1007700023604323E3600B4B63600023A3604FF4CB
:10078000804222616361A361E36123622046FFF737
:10079000A3FF204602F08CFBE7E700BF6C060020B9
:1007A00000540040A086010008B5034802F05EFC3A
:1007B000FFF7D6FF08BD00BF6C06002000B587B06C
:1007C0008DF81720094B1B680293012301930DF14B
:1007D000170200920A460146054802F061FC10B972
:1007E00007B05DF804FBFFF7DFFFF9E7000000202A
:1007F0006C06002000B587B00A4600238DF817303C
:100800000A4B1B680293012301930DF1170100911C
:100810000146074802F0F6FC20B99DF8170007B022
:100820005DF804FBFFF7C0FFF7E700BF0000002002
:100830006C060020F0B587B000260096144B1A6BAA
:1008400042F008021A631B6B03F008030093009B3D
:1008500010250195012702970223049303960D4C5E
:1008600001A9204601F0AAF9FFF77AFF324629468E
:10087000204601F013FB052000F090FE3A46294681
:10088000204601F00BFB052000F088FE07B0F0BD0C
:1008900000380240000C0240704708B5FFF78EFF99
:1008A00008BD08B5FFF7A6FF08BD000030B5D5B0FC
:1008B0002A4901A808F0BAF9294B0022A3F8D82345
:1008C000054608B3264BB3F8D823264B1A8001A857
:1008D00008F0F3F9284655B030BD04EB840304EB6F
:1008E000C3001F4C204428220DF14E01013009F0B5
:1008F000C9F8B4F8D83303EB830203EBC202012139
:10090000A1540B44A4F8D833174B1B78022BD9D130
:100910000EA901A808F0E3F905460028D2D19DF8F8
:100920004E30002BCED02E2BEED00D4BB3F8D8434B
:10093000172CE9D89DF8403013F0100FE4D10B4983
:100940000DF14E0009F038FA0028C6D108490DF122
:100950004E0009F031FA0028BFD1D5E7442000202D
:10096000240A0020C00600208022002010A50008D4
:1009700014A5000808B5FFF799FF00B108BD014BA9
:100980001888FBE7C006002008B501220349044887
:1009900007F08AFD034B187008BD00BF44200020FB
:1009A000101E0020C2060020002070470020704763
:1009B00008B5FFF772FF002008BD000070B564297C
:1009C0001AD8C1EB0121154B83FB0123C917C1EBD9
:1009D0006312D2B2E62A11D9C5B21932D4B2224674
:1009E00020212846FFF7E4FF06462246212128461B
:1009F000FFF7DEFF304470BDFF22EDE7C5B21932CC
:100A0000D4B2224620212846FFF7D2FF06462246CE
:100A100021212846FFF7CCFF3044ECE71F85EB513E
:100A20002DE9F04107460E469046FFF703FFFCB262
:100A3000012202212046FFF7BBFF0546731E032B50
:100A400052D8DFE803F00245494D334BFA221A70C1
:100A5000314B1A7804212046FFF7AAFF0544812272
:100A600005212046FFF7A4FF054404220621204665
:100A7000FFF79EFF054441463846FFF79FFF0544B8
:100A8000022E35D100220A212046FFF791FF0544AE
:100A900004220E212046FFF78BFF05440022272168
:100AA0002046FFF785FF05440F221F212046FFF750
:100AB0007FFF05440A221A212046FFF779FF0544EB
:100AC0000A221B212046FFF773FF2844BDE8F0816E
:100AD000114BAF221A70BBE70F4BAA221A70B7E76F
:100AE0000D4B05221A70B3E70B4B05221A70AFE7C6
:100AF00006220F212046FFF75BFF05440022242138
:100B00002046FFF755FF0544002225212046FFF728
:100B10004FFF0544B6E700BFC306002038B50129E2
:100B200014D0C4B2002222212046FFF741FF05461F
:100B3000002223212046FFF73BFF05440D4B1A7886
:100B400004212046FFF734FF284438BDC4B2FF22F9
:100B500004212046FFF72CFF0546012222212046D2
:100B6000FFF726FF0544012223212046FFF720FF3F
:100B70002844EAE7C30600200E4B1B78012B01D066
:100B80000020704770B50446C6B206220E213046DA
:100B9000FFF70EFF054600212046FFF7BFFF054483
:100BA0009E2202213046FFF703FF2844014B00221A
:100BB0001A7070BD0400002038B505460121FFF70A
:100BC000ADFF044601220221E8B2FFF7F1FE204406
:100BD00038BD000070B582B004460026019631464B
:100BE000FFF79CFF0546019602E0019B013301934C
:100BF000019BFE2BF9D9E4B2074B1A780421204659
:100C0000FFF7D6FE05449E2202212046FFF7D0FEC4
:100C1000284402B070BD00BFC306002038B50446AA
:100C20000121FFF77BFF0546E4B204220E21204696
:100C3000FFF7BEFE05449F2202212046FFF7B8FEC3
:100C4000024B01221A70284438BD00BF0400002066
:100C500008B50139032927D8DFE801F0020B141D7C
:100C6000FA220421C0B2FFF7A3FE144BFA221A7035
:100C700008BDAF220421C0B2FFF79AFE0F4BAF228E
:100C80001A70F5E7AA220421C0B2FFF791FE0B4BC0
:100C9000AA221A70ECE705220421C0B2FFF788FEF1
:100CA000064B05221A70E3E705220421C0B2FFF7C4
:100CB0007FFE024B05221A70DAE700BFC306002050
:100CC00008B5FFF7E9FD08BD10B50446FFF7B2FD12
:100CD0000121E0B2FFF7E5FD00F0F80010BD0000D3
:100CE00070B58AB00024059406940794089409947A
:100CF00001942B4B1A6B42F080021A631A6B02F0BC
:100D000080020192019A02941A6B42F004021A6363
:100D10001A6B02F004020292029A03941A6B42F0D8
:100D200001021A631A6B02F001020392039A0494FF
:100D30001A6B42F002021A631B6B03F00203049366
:100D4000049B184E22460121304601F0A7F80125E8
:100D5000059506950794089405A9304600F02EFFE6
:100D600005954FF48813069307940F4D05A928465F
:100D700000F024FF042305930223069307940894AC
:100D80000523099305A9284600F018FF22462146AD
:100D9000062000F05DFC062000F06AFC0AB070BD81
:100DA00000380240000802400000024000B583B055
:100DB00000210191094B1A6B42F400121A631B6B5C
:100DC00003F400130193019B0A46102000F040FC3D
:100DD000102000F04DFC03B05DF804FB0038024029
:100DE000012800D07047084B1B78032B07D0064B17
:100DF0001B78012BF6D1044B0B221A70F2E7024B41
:100E00000A221A70F3E700BF000E002072B6FEE758
:100E100008B50A480A4B03600A4B4360002383600D
:100E2000C3604FF48042026143618361C361036226
:100E300002F03EF800B908BDFFF7E8FF6C0700209C
:100E400000540040A086010008B50B480B4B03601E
:100E50004FF40072426000238360C36002614FF46C
:100E6000FA5242618361C361036202F069FB00B917
:100E700008BDFFF7CBFF00BF24070020003C004067
:100E800000B595B03022002108A808F0A9FD002384
:100E90000393049305930693079301931F4A116CE0
:100EA00041F080511164126C02F080520192019A5B
:100EB00002931B4B1A6842F440421A601B6803F409
:100EC00040430293029B032308934FF4803309931A
:100ED00001230B9310230C9302230E934FF48002F3
:100EE0000F920F22109290221192129305231393C6
:100EF00008A803F079F868B90F230393002104913F
:100F000005910691079103A803F0BEFA20B915B028
:100F10005DF804FBFFF77AFFFFF778FF0038024027
:100F20000070004008B500F00DFBFFF7A9FFFFF7C8
:100F3000D7FEFFF73BFFFFF76BFFFFF785FF04F0DE
:100F4000C9F807F0A5FF07F0C3FF0C4B1B78022B75
:100F5000F9D1FFF719FD002000F066F9084B1B6876
:100F6000002BF0D1012000F0B1F9064B1B78092BC2
:100F7000F4D1034B01221A60F0E700BF8022002069
:100F8000C0070020000E002082B0002100910B4B12
:100F90005A6C42F480425A645A6C02F480420092C5
:100FA000009A01911A6C42F080521A641B6C03F093
:100FB00080530193019B02B0704700BF003802408C
:100FC00030B589B0002303930493059306930793E8
:100FD0000268144B9A4201D009B030BD002501953A
:100FE000114C236B43F002032363236B03F00203D2
:100FF0000193019B4FF41073039312230493032373
:1010000006930423079303A9084800F0D7FD02952F
:10101000236C43F400132364236C03F40013029342
:10102000029BD9E70054004000380240000402400F
:1010300002680A4B9A4200D0704710B5084A136CF8
:1010400023F400131364074C4021204600F09EFE59
:101050004FF40071204600F099FE10BD005400408E
:101060000038024000040240F0B58FB0002309931D
:101070000A930B930C930D93039304930593069398
:10108000079308930268384B9A4201D00FB0F0BD25
:10109000044601230393C0230593102304930223E2
:1010A000069303A803F0B6FA002857D1002500954F
:1010B0002E4B1A6C42F400421A641A6C02F400427D
:1010C0000092009A01951A6B42F001021A631A6BA2
:1010D00002F001020192019A02951A6B42F0040299
:1010E0001A631B6B03F004030293029B1023099302
:1010F00002270A970B950C9506260D9609A91C4800
:1011000000F05CFD4FF4A45309930A970B950C95DE
:101110000D9609A9174800F051FD1748174B0360B9
:10112000456040238360C5604FF4806303614FF4E2
:10113000006343614FF4005383614FF48073C361D4
:1011400005620423436203238362C562056300F0E2
:101150002FFB30B9084BA3639C6397E7FFF756FE5C
:10116000A4E7FFF753FEF5E7003C004000380240DB
:101170000000024000080240C406002088600240CF
:10118000FEE7FEE7FEE7FEE7FEE7704770477047C1
:1011900008B500F0F1F908BD08B5012000F084FEA3
:1011A00008BD000008B5024800F01AFC08BD00BFE9
:1011B000C406002008B5024801F042FB08BD00BF8C
:1011C0005C26002010B503460C4A0D490D48006806
:1011D00040B10C4800680344521A934206D8094AA9
:1011E000136010BD0748084C0460F2E708F0ACFE3D
:1011F0000C2303604FF0FF30F3E700BF0000022034
:1012000000040000C4070020702C0020704700007C
:1012100008B50246034B19780320FFF7FBF900B12C
:10122000012008BD3C00002030B583B004462248B0
:1012300007F0A3FBFFF79EFBA04203D80124204642
:1012400003B030BD04EB840304EBC3011B4B194412
:10125000194C01221144204607F054F9184D01ABF6
:101260002C222946204607F05BFAA869FFF7D0FF39
:10127000144D05F5805300211970204607F092FBAC
:1012800001AB4FF480522946204607F049FA044644
:1012900080B90D4B03221A70019B0BB90124CEE7D4
:1012A0004FF480512846FFF779F805F58055019BEA
:1012B0006B60C4E70124C2E7C8070020240A0020AD
:1012C000F8090020040E0020000E002030B583B085
:1012D0005E4B1B78033B0A2B00F2B480DFE803F07F
:1012E00006B2536EB2B24B848B92A200584B5A682E
:1012F000584B5B689A4209D2554B1C78012C0CD094
:10130000534B1B78022B1ED000249CE00220FFF7D9
:1013100089F84E4B05221A70EEE70DF106034FF4E3
:1013200000624D494D4807F0FBF940B9484B002297
:101330001A705968BDF806200A445A60E0E7022096
:10134000FFF770F87FE00DF106034FF400624449A7
:10135000424807F0E5F9044640B93D4B00221A70B7
:101360005968BDF806200A445A606CE00220FFF775
:1013700059F8012467E00220FFF754F8334B0022AC
:101380001A7001245FE00446364B1D8801352DB2EA
:101390001D80FFF7EFFA854203DB5CB1314B002281
:1013A0001A800220FFF73EF82E4B1878FFF73CFF1B
:1013B000002448E0254B09221A70F2E7294A1388D5
:1013C000013B1BB21380002B08DB0220FFF72AF839
:1013D000244B1878FFF728FF002434E0FFF7CAFAFF
:1013E0000138204B1880F0E7FEF7F8FF174B012279
:1013F0001A70002427E0FFF703F8144B03221A7039
:10140000002420E0184B1B685A2B02D80A33164AD6
:101410001360154B1878FFF727F80C4B03221A704E
:10142000002410E0104B1B68092B02D90A3B0E4A1E
:1014300013600D4B1878FFF717F8044B03221A704E
:10144000002400E00024204603B030BD000E002040
:10145000041E0020F8090020040E0020C807002008
:1014600004160020FE0D00203C000020044B1B78D9
:10147000032B00D07047034B02221A70FAE700BF1B
:10148000000E0020041E0020044B1B78032B00D00C
:101490007047034B01221A70FAE700BF000E0020CC
:1014A000041E0020DFF834D00D480E490E4A0023F8
:1014B00002E0D458C4500433C4188C42F9D30B4A08
:1014C0000B4C002301E013600432A242FBD3FFF770
:1014D0009DFE08F04DFDFFF725FD7047000002203E
:1014E00000000020A4050020B8A90008A4050020E1
:1014F0006C2C0020FEE7000010B504460E4B1A7855
:101500004FF47A73B3FBF2F30C4A1068B0FBF3F0BC
:1015100000F0BCF868B90F2C01D901200AE00022C4
:1015200021464FF0FF3000F093F8054B1C6000207F
:1015300000E0012010BD00BF400000203800002066
:101540004400002008B50B4B1A6842F400721A6080
:101550001A6842F480621A601A6842F480721A6053
:10156000032000F063F80F20FFF7C6FFFFF70CFD24
:10157000002008BD003C0240034A1168034B1B7861
:101580000B441360704700BF0C1E00204000002079
:10159000014B1868704700BF0C1E002038B5044688
:1015A000FFF7F6FF0546B4F1FF3F02D0044B1B786E
:1015B0001C44FFF7EDFF401BA042FAD338BD00BF2B
:1015C00040000020002808DB0901C9B200F160409A
:1015D00000F5614080F80013704700F00F0009012A
:1015E000C9B2014B1954704714ED00E000B500F08A
:1015F0000700C0F1070CBCF1040F28BF4FF0040C2A
:10160000031D062B0FD9C31E4FF0FF3E0EFA0CF040
:1016100021EA000199400EFA03FE22EA0E0241EA95
:1016200002005DF804FB0023EEE70000074AD368E0
:1016300023F4E0631B041B0C000200F4E06003438E
:1016400043F0BF6343F40033D360704700ED00E024
:1016500010B50446054BD868C0F30220FFF7C6FF5B
:1016600001462046FFF7AEFF10BD00BF00ED00E0D1
:10167000002807DB00F01F02400901239340024AC3
:1016800042F82030704700BF00E100E00138B0F1BF
:10169000807F0BD24FF0E0235861054AF02182F899
:1016A00023100020986107221A61704701207047BB
:1016B00000ED00E030B405682C6824F480242C6030
:1016C000046863608368402B05D0036899600368F1
:1016D000DA6030BC704703689A600368D960F8E745
:1016E00010B40368D9B210390B4AA2FB01421209A7
:1016F0000A4CA25CC2655F2908D923F47F7323F0EA
:10170000030304338365806D10BC704723F47F733B
:1017100023F003038365F6E7ABAAAAAA30A5000865
:10172000836A826992B9012B0AD0022B02D00BB1D5
:1017300000207047C36A13F0807F28D100207047D3
:10174000C36AB3F1C07F24D000207047B2F5005FB8
:1017500009D0022B25D9032B25D1C36A13F0807F32
:1017600023D100207047032B03D8DFE803F01404D3
:10177000140A00207047C36A13F0807F0DD1002047
:101780007047C36AB3F1C07F09D0002070470120C1
:1017900070470120704701207047012070470120E9
:1017A00070470120704700207047012070470000FB
:1017B00070B50446FFF7ECFE002C5BD00546022313
:1017C00084F83530002384F834302268136823F01D
:1017D0000103136023681A6812F0010F0AD0FFF7A3
:1017E000D7FE431B052BF5D920236365032084F81E
:1017F000350070BD1A68204911406268A068024334
:10180000E06802432069024360690243A069024321
:10181000E0690243206A02430A43616A04291ED038
:101820001A602668756925F00705636A1D43042B55
:1018300007D1A36A1D43E36A1BB12046FFF770FF7F
:1018400090B975612046FFF74BFFE26D3F2393404F
:10185000836000206065012384F83530C9E7E16AC0
:10186000206B01430A43DBE740236365012084F8D2
:101870003500BEE70120BCE73F8010F000282DD0E6
:1018800038B5054690F83500C0B2022825D02A6840
:10189000136823F0010313602B6800241C602B687D
:1018A0005C602B689C602B68DC602B681C612B687B
:1018B00021225A612846FFF713FFEC632C646C6405
:1018C000AC64EC642C65EA6D3F23934083606C65E7
:1018D00085F8354085F83440204638BD01207047F2
:1018E00038B50446856D90F8340001282BD00120CE
:1018F00084F8340094F83500C0B2012804D00023E5
:1019000084F83430022038BD022084F835000020ED
:1019100060652046FFF7CEFEE26D3F239340AB604B
:101920002268136843F016031360236C23B1226806
:10193000136843F0080313602268136843F001033F
:1019400013600020DFE70220DDE770B50446866DF6
:10195000FFF71EFE94F83530DBB2022B06D0802351
:101960006365002384F83430012070BD0546226889
:10197000136823F0160313602268536923F0800371
:101980005361236CE3B12268136823F008031360EA
:101990002268136823F00103136023681B6813F0A7
:1019A000010F11D0FFF7F4FD431B052BF5D92023C0
:1019B0006365032084F83500002384F83430D4E7CD
:1019C000A36C002BDFD1E3E7E26D3F239340B360CC
:1019D000012384F83530002084F83400C5E7000086
:1019E000F0B583B0044600230193724B1D68724B1F
:1019F000A3FB0535AD0A876D3E68C26D0823934091
:101A0000334210D003681A6812F0040F0BD01A6822
:101A100022F004021A60C26D08239340BB60436D3C
:101A200043F001034365E26D01239340334209D043
:101A30002268526912F0800F04D0BB60636D43F0DE
:101A400002036365E26D04239340334209D02268A8
:101A5000126812F0020F04D0BB60636D43F0040300
:101A60006365E26D10239340334224D022681268EC
:101A700012F0080F1FD0BB6023681A6812F4802F81
:101A80000DD01B6813F4002F04D1236C9BB12046AA
:101A9000984710E0A36C73B1204698470BE01A6892
:101AA00012F4807F03D11A6822F008021A60236CB6
:101AB0000BB120469847E26D20239340334255D026
:101AC0002268126812F0100F50D0BB6094F83530C5
:101AD000DBB2052B0ED023681A6812F4802F33D0A6
:101AE0001B6813F4002F2AD1636C002B3ED02046D4
:101AF00098473BE02268136823F0160313602268BE
:101B0000536923F080035361236CA3B122681368E7
:101B100023F008031360E26D3F239340BB60012371
:101B200084F83530002384F83430236D002B3FD007
:101B3000204698473CE0A36C002BE7D1EBE7E36B32
:101B4000A3B12046984711E01A6812F4807F09D1AA
:101B50001A6822F010021A60012384F8353000233D
:101B600084F83430E36B0BB120469847636DFBB1CA
:101B7000636D13F0010F17D0052384F83530226808
:101B8000136823F001031360019B01330193AB42FF
:101B900004D823681B6813F0010FF5D1012384F8E2
:101BA0003530002384F83430E36C0BB1204698477D
:101BB00003B0F0BD38000020B5814E1B00230F2B71
:101BC00000F2DA8030B583B068E085684FEA430EF2
:101BD000032404FA0EF425EA0405CC6804FA0EF492
:101BE0002C438460446824EA02044A68C2F3001269
:101BF0009A40224342605FE0DC08083450F8242019
:101C000003F00705AD004FF00F0E0EFA05FE22EAB5
:101C10000E0E0A69AA4042EA0E0240F824205FE054
:101C2000042200E0002202FA0EF22A430234534D4D
:101C300045F82420524A94686FEA0C0224EA0C0505
:101C4000D1F804E01EF4801F01D04CEA04054C4C8E
:101C5000A560E46802EA0405D1F804E01EF4001F60
:101C600001D04CEA0405464CE560646802EA0405CC
:101C7000D1F804E01EF4003F01D04CEA0405404CCA
:101C80006560246822404D6815F4803F01D04CEA1D
:101C900004023B4C226001330F2B6BD801229A4087
:101CA0000C6804EA020C32EA0404F4D14C6804F033
:101CB0000304013C012C88D94A6802F00302032A7C
:101CC00009D0C4685D000322AA4024EA02048A689D
:101CD000AA402243C2604A6802F00302022A8BD063
:101CE00004684FEA430E032202FA0EF224EA0204C9
:101CF0004A6802F0030202FA0EF2224302604A68C6
:101D000012F4403FC7D0002201921E4A546C44F4A2
:101D100080445464526C02F480420192019A9C08FF
:101D2000A51C164A52F8255003F0030E4FEA8E0EFA
:101D30000F2202FA0EF225EA0205134A90423FF4FE
:101D400071AF02F5806290420ED002F5806290423F
:101D50000CD002F5806290420AD002F58062904277
:101D60003FF45EAF07225EE701225CE702225AE7FA
:101D7000032258E703B030BD704700BF0038014070
:101D8000003C0140003802400000024000230F2BBD
:101D90007CD8F0B52DE0042500E0002505FA0CF50F
:101DA000A54257D004685D004FF0030C0CFA05FC07
:101DB00024EA0C0404604FEAD30E0EF1080E50F82A
:101DC0002E4003F00706B6000F25B54024EA0504AF
:101DD00040F82E40C46824EA0C04C460446824EA35
:101DE00002024260826822EA0C02826001330F2BF9
:101DF0004BD801229A4002EA010632EA0104F5D1E9
:101E00004FEA930E0EF10205214C54F8254003F0E1
:101E1000030C4FEA8C0C0F2505FA0CF73C401D4DC6
:101E2000A842BAD005F58065A8420DD005F58065B9
:101E3000A8420BD005F58065A84209D005F580655C
:101E4000A842A8D00725A9E70125A7E70225A5E70D
:101E50000325A3E7104C256825EA0605256065687B
:101E600025EA06056560E56825EA0605E560A568DA
:101E700025EA0605A560064E0EF1020456F8245028
:101E800025EA070546F824508CE7F0BD704700BFEF
:101E90000038014000000240003C01400AB181616D
:101EA000704709048161704708B5054B5B690342BF
:101EB00000D108BD024B5861FEF792FFF9E700BF61
:101EC000003C0140F8B50668346A04F00F07C4F31B
:101ED0004343C4F30A14022B00D0F8BD0546002C7E
:101EE000FBD02C2303FB0703596C0029F5D02C23CE
:101EF00003FB07031A6D2244DB6C9A4206D92C239C
:101F000003FB0705042385F86030E6E722463046E8
:101F100002F07BFD2C2303FB07535A6C22445A64C6
:101F20001A6D22441A6506EB4716D6F81025C2F33F
:101F3000C942B3F84030A342CFD1002ACDD0D6F861
:101F4000003523F0804343F00043C6F800352C23CE
:101F500003FB075393F8542082F0010283F85420C6
:101F6000BBE7F0B585B004469DF828509DF82C607D
:101F7000BDF8307090F8F802012837D0012084F8BD
:101F8000F8022C2000FB01404FF0000C80F83DC00F
:101F900080F83830A0F8407080F8391080F83F6041
:101FA00002F07F0C80F83AC012F0800F16D12C207E
:101FB00000FB01404FF0000C80F83BC02C2000FBE0
:101FC000014080F83C50029701960095206802F08D
:101FD00066FE002384F8F83205B0F0BD2C2000FB2B
:101FE00001404FF0010C80F83BC0E7E70220F3E727
:101FF00090F8F832012B0BD010B50446012380F87D
:10200000F832006802F0E3FE002084F8F80210BD08
:102010000220704700284DD070B58AB0044605688C
:1020200090F8F932002B40D0032384F8F932EB6B9F
:1020300013F4807F01D100232361206802F079FC32
:10204000A4465CF8106BEE46BCE80F00AEE80F004B
:10205000BCE80F00AEE80F009CE803008EE8030028
:10206000251D95E80E00304602F018FC012120687D
:1020700002F0F6FCA4465CF8106BEE46BCE80F00DC
:10208000AEE80F00BCE80F00AEE80F009CE80300CC
:102090008EE8030095E80E00304602F013FD0123A0
:1020A00084F8F93200200AB070BD80F8F83206F0EA
:1020B00017FFB9E70120704770B59DF81050BDF8C3
:1020C00018604FF02C0C0CFB010C8CF83B208CF8AA
:1020D0003F307DB964464FF0030C84F842C09DF850
:1020E0001CC084F83DC0032B00F28180DFE803F0C0
:1020F0000A7929512C2404FB01044FF0020C84F8C6
:1021000042C0F0E7012D72D1002A70D12EB92C23E4
:1021100003FB0103012283F855202C2303FB010359
:1021200093F8553033B92C2303FB0103002283F8C5
:1021300042205CE02C2303FB0103022283F84220AF
:1021400055E092B92C2303FB010393F855302BB9CA
:102150002C2303FB010383F8422048E02C2303FBDC
:102160000103022283F8422041E02C2303FB0103F8
:1021700093F8543033B92C2303FB0103002283F876
:10218000422034E02C2303FB0103022283F8422087
:102190002DE092B92C2303FB010393F855302BB9A2
:1021A0002C2303FB010383F8422020E02C2303FBB4
:1021B0000103022283F8422019E02C2303FB0103D0
:1021C00093F8543033B92C2303FB0103002283F826
:1021D00042200CE02C2303FB0103022283F842205F
:1021E00005E02C2303FB0103002283F842202C236B
:1021F00001FB03F3C218059C5464D664002482F8E2
:102200006040146582F8391082F8614003F13801AA
:10221000027C0144006802F05FFE70BD30B583B0FF
:1022200004460568D5F840340193D5F8403400934E
:10223000009B23F02E030093019B13F0020F07D0A5
:10224000019B13F0010F25D1009B43F00203009383
:10225000019B13F0080F10D0009B43F0080300937C
:10226000019B13F0040F2DD0A369022B15D0E36856
:10227000012B22D0204606F092FE019B13F0200F86
:1022800003D0009B43F020030093009BC5F840342B
:1022900003B030BD06F076FED6E7019B03F4C02301
:1022A000B3F5802F04D00121206802F087FCE1E71C
:1022B0000221206802F082FCDCE74EF66022C5F8BD
:1022C0000424D7E7204606F070FED6E7F8B50446AA
:1022D0000E46076807EB411707F5A065AB6813F0DA
:1022E000040F0AD1AB6813F4807F49D1AB6813F0B7
:1022F000200F52D02023AB600AE00423AB602C23D4
:1023000003FB0103062283F86120006802F05FFDF1
:10231000AB6813F4007F71D1AB6813F0010F00F0CC
:102320009D80236943B12C2303FB06439A6C2969E2
:10233000C1F31201521A1A652C2303FB0643012232
:1023400083F861200021D965AA6093F83F30002B03
:102350005CD0022B5AD0032B01D0012B5CD1D7F8D3
:10236000003543F00053C7F800352C2303FB064328
:10237000012283F860203146204606F00FFE4BE034
:102380004FF48073AB602C2303FB0103072283F817
:102390006120006802F01BFDBAE7AB6813F0080F7C
:1023A00013D1AB6813F4806F1BD1AB6813F0800FAF
:1023B000AED08023AB602C2303FB0103062283F8FD
:1023C0006120006802F003FDA2E70823AB602C2324
:1023D00003FB0103052283F86120006802F0F7FC8B
:1023E00096E74FF48063AB602C2303FB01030822C4
:1023F00083F86120006802F0EAFC89E73146206832
:1024000002F0E5FC4FF40073AB60F8BD3146206884
:1024100002F0DDFC1023AB602369012B09D02C23D3
:1024200003FB064393F8542082F0010283F8542002
:10243000EBE72C2303FB06439A6CB3F84030B2FB66
:10244000F3F313F0010FE0D02C2303FB064393F8C2
:10245000542082F0010283F85420D6E7AB6813F0D1
:10246000020F5ED02C2303FB064393F86130012B4F
:1024700007D0033B052B0AD8DFE803F03A09151C07
:10248000491C2C2303FB0643012283F8602002230E
:10249000AB602C2303FB064393F8602031462046B3
:1024A00006F07CFDB1E72C2303FB0643052283F8ED
:1024B0006020ECE72C2202FB0642D36D0133D3658A
:1024C000022B06D913460022DA65042283F8602025
:1024D000DDE72C2303FB0643022283F86020D7F8B4
:1024E000003523F0804343F00043C7F80035CEE7C2
:1024F0002C2303FB0643022283F86020D7F8003523
:1025000023F0804343F00043C7F80035BFE72C2396
:1025100003FB0643DA6D0132DA65042283F860209A
:10252000B5E7AB6813F0100F3FF46FAF2C2303FB3C
:10253000064393F83F30032B0CD00BB1022B06D18E
:102540002C2303FB06430022DA65236963B11023C1
:10255000AB605AE72C2303FB06430022DA653146C1
:10256000206802F034FCF2E72C2303FB064303222D
:1025700083F861203146206802F029FCE7E738B58E
:10258000036803EB411202F5A065AC6814F0040F78
:1025900019D1AC6814F0200F21D02023AB602C237C
:1025A00003FB010393F83D30012B17D12C2303FBD0
:1025B0000103002283F83D20022283F86020006896
:1025C00002F005FC0AE00423AB602C2303FB0103AB
:1025D000062283F86120006802F0F9FB38BDAC6880
:1025E00014F4007F1FD1AC6814F0010F22D02C230B
:1025F00003FB01030022DA65AB6813F0400F07D03C
:102600002C2303FB0103012283F83D204023AB6010
:102610000122AA602C2303FB010383F861200068D8
:1026200002F0D5FBDAE74FF40073AB60006802F00C
:10263000CEFBD3E7AC6814F0400F24D1AC6814F0A3
:10264000080F31D1AC6814F0100F39D02C2202FBE6
:1026500001020024D465032482F8614092F83D20F1
:102660005AB92C2202FB010292F83C202AB92C22F2
:1026700002FB0102012082F83D00184602F0A7FB90
:102680001023AB60AAE72C2202FB0102042082F88F
:102690006100012082F83D000020D065184602F05C
:1026A00096FB4023AB6099E70823AB602C2303FB28
:1026B0000103052283F86120006802F088FB8DE7A2
:1026C000AC6814F0800F25D0026982B12C2202FB85
:1026D0000102D36D0133D365022B12D82C2303FBE7
:1026E0000103022283F860208023AB6076E72C226E
:1026F00002FB0102062082F86100184602F067FB27
:10270000F2E713460022DA65042283F8602006F01F
:1027100045FCE9E7AC6814F4806F13D1AB6813F0A3
:10272000020F3FF45BAF2C2303FB010393F86130EE
:10273000012B14D0033B052B1DD8DFE803F04F56C7
:102740005D641C642C2202FB0102082082F86100F7
:10275000184602F03CFB4FF48063AB603EE72C234D
:1027600003FB0103012283F8602093F83F30023B12
:10277000DBB2934209D90223AB602C2303FB010394
:1027800093F8602006F00AFC28E7046944B92C237A
:1027900003FB010393F8552082F0010283F85520D2
:1027A000012CE8D12C2303FB0103DB6C002BE2D0CE
:1027B0002C2202FB0102B2F840201344013BB3FB80
:1027C000F2F313F0010FD6D02C2303FB010393F88F
:1027D000552082F0010283F85520CCE72C2303FB1F
:1027E0000103022283F86020C5E72C2303FB0103C9
:1027F000022283F86020BEE72C2303FB010305229D
:1028000083F86020B7E72C2404FB0104E36D013357
:10281000E365022B05D90022E265042284F86020DA
:10282000A9E72C2303FB0103022483F86040D2F8BC
:10283000003523F0804343F00043C2F800359AE7A7
:10284000F8B504460568284602F006F9012800D0CC
:10285000F8BD206802F0FCF80028F9D0206802F0EA
:10286000F7F810F4001F03D023684FF400125A61E8
:10287000206802F0EDF810F4801F03D023684FF4B5
:1028800080125A61206802F0E3F810F0806F03D0E4
:1028900023684FF080625A61206802F0D9F810F086
:1028A000020F02D0236802225A61206802F0D0F899
:1028B00010F0005F08D023684FF000525A61D5F83D
:1028C000403413F0010F1DD0206802F0C1F810F061
:1028D000807F26D1206802F0BBF810F0080F24D1C9
:1028E000206802F0B5F810F0100F25D1206802F032
:1028F000AFF810F0007FABD0206802F063FA074613
:1029000000262CE01021284602F01AF8284602F092
:102910003FF80121206802F051F9204606F038FB0B
:10292000D2E72046FFF77AFCD4E7204606F024FBE6
:10293000236808225A61D3E72268936923F01003C1
:1029400093612046FFF7BEFA2268936943F01003B3
:102950009361CBE7F1B22046FFF711FE0136A36881
:10296000B34212D906F00F0327FA03F313F0010F55
:10297000F4D005EB4613D3F8003513F4004FE9D03B
:10298000F1B22046FFF7A2FCE8E723684FF000729F
:102990005A615DE790F8F832012B0ED010B504466D
:1029A000012180F8F812006802F046F9206801F071
:1029B000BAFF002084F8F80210BD0220704790F89A
:1029C000F832012B0BD010B50446012380F8F83201
:1029D000006802F035FB002084F8F80210BD0220E8
:1029E000704708B5006802F008F908BD2C2303FB06
:1029F000010090F8600070472C2303FB0100006D7C
:102A0000704708B5006802F045F908BD08B50068D0
:102A100002F035F908BD03685A6912F4806F01D1DC
:102A2000002070476FF480625A6100230363202204
:102A300080F83D2080F83E30026C42F004020264CF
:102A400080F83C30012070472DE9F04107460D46E3
:102A500090461E4624E0FEF79BFD069BC01AB0423E
:102A600000D8EEB900233B63202287F83D2087F889
:102A70003E303A6C42F020023A6487F83C30012044
:102A80001EE03B689C6925EA040C1FFA8CFCBCFA2A
:102A90008CFC4FEA5C1CE04511D1B6F1FF3FDAD166
:102AA000C5F30743012BECD13B685B6925EA030CB6
:102AB0001FFA8CFCBCFA8CFC4FEA5C1CEBE7002094
:102AC000BDE8F0812DE9F04105460E4617469846CF
:102AD0003DE01A6842F400721A602B686FF480625D
:102AE0005A6100232B63202285F83D2085F83E3073
:102AF0002A6C42F004022A6485F83C30012034E05C
:102B0000FEF746FDA0EB0800B84200D8FFB900234D
:102B10002B63202285F83D2085F83E302A6C42F058
:102B200020022A6485F83C3001201EE02B689C6955
:102B300026EA0404A4B2003C18BF0124A4B12B6807
:102B40005A6912F4806FC4D1B7F1FF3FD8D1C6F3F0
:102B50000743012BEAD12B685C6926EA0404A4B27E
:102B6000003C18BF0124E9E70020BDE8F08170B502
:102B700004460D46164623685B6913F0800F1CD18E
:102B80002046FFF748FFD0B9B5F1FF3FF3D0FEF77D
:102B9000FFFC801BA84201D8002DECD10023236349
:102BA000202284F83D2084F83E30226C42F020023E
:102BB000226484F83C30012000E0002070BD012038
:102BC000FCE700002DE9F04385B004460D46914630
:102BD0001F46DDF830800D9E0368196841F480714E
:102BE00019600096434600224FF00111FFF72CFFB9
:102BF00060B9236805F0FE051D613346424626494B
:102C00002046FFF75FFF68B1012008E023681B68DA
:102C100013F4807F02D04FF400732364032005B0C7
:102C2000BDE8F0830023039323685A6903929B69EC
:102C30000393039B324641462046FFF798FF30B985
:102C4000012F0FD123685FFA89F61E61E7E7236C35
:102C5000042B01D00120E2E72268136843F40073DB
:102C60001360F7E723684FEA19221A61324641469A
:102C70002046FFF77CFF20B923685FFA89F61E61C2
:102C8000CDE7236C042B01D00120C8E7226813682C
:102C900043F400731360F7E7020001002DE9F047E9
:102CA00084B004460D46164699460C9FDDF83480E4
:102CB0000268136843F4806313600368196841F481
:102CC00080711960CDF800803B4600224FF0011161
:102CD000FFF7BAFE70B95FFA85FA236805F0FE05C2
:102CE0001D6143463A4641492046FFF7EBFE68B175
:102CF000012008E023681B6813F4807F02D04FF4A2
:102D000000732364032004B0BDE8F087002303931D
:102D100023685A6903929B690393039B4246394691
:102D20002046FFF724FF80B9B9F1010F18D12368BD
:102D3000F6B21E61424639462046FFF718FF68B3D7
:102D4000236C042B24D00120DDE7236C042B01D05D
:102D50000120D8E72268136843F400731360F7E793
:102D60002368320A1A61424639462046FFF7FFFEC1
:102D700018B92368F6B21E61DCE7236C042B01D07E
:102D80000120C0E72268136843F400731360F7E77B
:102D90002268136843F400731360D4E72268136851
:102DA00043F480731360CDF800803B4600224FF05F
:102DB00001112046FFF748FE68B922684AF0010376
:102DC000136143463A4609492046FFF77BFE002837
:102DD00099D0012097E723681B6813F4807F02D005
:102DE0004FF40073236403208DE700BF020001004D
:102DF00070B504460D46164623685B6913F0040F50
:102E00001CD12046FFF707FED0B9B5F1FF3FF3D044
:102E1000FEF7BEFB801BA84201D8002DECD1002399
:102E20002363202284F83D2084F83E30226C42F057
:102E30002002226484F83C30012000E0002070BDB4
:102E40000120FCE770B505460C4616462B6859690B
:102E500011F0400F29D1596911F0100F15D1FEF76B
:102E600097FB801BA04201D8002CEFD100232B63DD
:102E7000202285F83D2085F83E302A6C42F0200261
:102E80002A6485F83C30012070BD6FF010025A6151
:102E900000232B63202285F83D2085F83E302A6CE4
:102EA0002A6485F83C300120EEE70020ECE70000C2
:102EB000002800F0CC8070B5044690F83D30002B1F
:102EC00077D0242384F83D302268136823F001036F
:102ED00013602268136843F4004313602268136888
:102EE00023F40043136001F085FB62685A4B9A4259
:102EF00064D85A4B98428CBF00230123002B40F02A
:102F0000A8805749A1FB00318B0C25686A6822F024
:102F10003F0242EA91426A6021680A6A22F03F0257
:102F200066684D4DAE424FD8013313430B622168A2
:102F3000CA6922F44F4222F0FF026568464B9D4267
:102F40004CD8431E6D00B3FBF5F3013340F6FC7023
:102F5000034278D0C3F30B031A43CA6121680B689C
:102F600023F0C003E269206A024313430B60216827
:102F70008B6823F4034323F0FF032269E0680243D4
:102F800013438B602168CB6823F0FF036269A0695B
:102F900002431343CB602268136843F001031360BC
:102FA00000202064202384F83D30206384F83E0014
:102FB00070BD80F83C30FEF703F882E7294B984259
:102FC0008CBF0023012399E74FF4967505FB03F3AB
:102FD000254DA5FB03539B090133A6E7A668BEB99F
:102FE000431E05EB450CB3FBFCF30133C3F30B03AA
:102FF000B3FA83F35B0943BBC6B9431E05EB450532
:10300000B3FBF5F30133C3F30B0343F40043A3E72E
:10301000431E05EB850C0CEB8C0CB3FBFCF301336E
:10302000C3F30B03B3FA83F35B09E4E7431E05EB39
:10303000850505EB8505B3FBF5F30133C3F30B03FE
:1030400043F4404388E7042386E7012384E7012013
:1030500070470120ACE700BFA08601007F841E00FE
:1030600083DE1B43FF083D00D34D6210A8B110B5AD
:103070000446242380F83D300268136823F00103DE
:103080001360FDF7D5FF0020206484F83D00206325
:1030900084F83E0084F83C0010BD01207047000019
:1030A0002DE9F04383B004460F46904699460C9EA6
:1030B000FEF76EFA054694F83D00C0B2202803D012
:1030C000022003B0BDE8F0830095192301224B498B
:1030D0002046FFF7B9FC002840F0898094F83C3086
:1030E000012B00F08680012384F83C3023681A68A5
:1030F00012F0010F03D11A6842F001021A6022682F
:10310000136823F400631360212384F83D304023C7
:1031100084F83E30002323640A9B6362BDF82C30A0
:103120006385638D2385364BE362019500964B469C
:10313000424639462046FFF745FD00285BD1238DE6
:10314000002B35D02A4631462046FFF710FD20BB24
:10315000626A236812781A61626A531C6362218D65
:10316000013989B22185638D9BB2013B9BB2638596
:103170002368586910F0040FE1D00029DFD052789D
:103180001A61636A01336362238D013B2385638D7A
:103190009BB2013B9BB26385D1E7236C042B01D02A
:1031A00001208EE72268136843F400731360F7E789
:1031B0002A4631462046FFF71BFE50B1236C042BF4
:1031C00001D001207DE72268136843F40073136087
:1031D000F7E72268136843F400731360202384F830
:1031E0003D30002384F83E3084F83C3069E702200B
:1031F00067E7022065E7012063E700BF02001000D7
:103200000000FFFF2DE9F04387B004460F469046CB
:103210009946109EFEF7BCF9054694F83D00C0B2F1
:10322000202804D00227384607B0BDE8F083009577
:103230001923012288492046FFF706FC002840F0A8
:10324000438194F83C30012B00F04081012384F845
:103250003C3023681A6812F0010F03D11A6842F05B
:1032600001021A602268136823F4006313602223AA
:1032700084F83D30402384F83E30002323640E9BC5
:103280006362BDF83C306385638D2385734BE362D5
:10329000019500964B46424639462046FFF7FEFC14
:1032A0000746002840F01481238D5BB90293236800
:1032B0005A6902929A690292029A1A6842F400725A
:1032C0001A6075E0012B0AD0022B1AD00023059357
:1032D00023685A6905929B690593059B68E02268FB
:1032E000136823F4806313600023039323685A69EF
:1032F00003929A690392039A1A6842F400721A6060
:1033000056E02268136823F4806313602268136810
:1033100043F4006313600023049323685A69049202
:103320009B690493049B43E02A4631462046FFF7FD
:1033300089FD002840F0CE8023681A69636A1A70FC
:10334000636A01336362238D013B2385638D9BB2E6
:10335000013B9BB263852BE0009533460022404938
:103360002046FFF771FB002840F0B6802268136802
:1033700043F40073136023681A69636A1A70626AFF
:10338000531C6362238D013B2385638D9BB2013BFC
:103390009BB2638523681B695370636A0133636260
:1033A000238D013B2385638D9BB2013B9BB26385DB
:1033B000238D002B7FD0032B54D8012BB4D0022BAC
:1033C000CAD000953346002225492046FFF73CFB32
:1033D000002840F083802268136823F48063136020
:1033E00023681A69636A1A70636A01336362238D02
:1033F000013B2385638D9BB2013B9BB263850095A6
:103400003346002216492046FFF71EFB002867D1ED
:103410002268136843F40073136023681A69636AAF
:103420001A70626A531C6362238D013B2385638D8E
:103430009BB2013B9BB2638523681B695370636A2F
:1034400001336362238D013B2385638D9BB2013B76
:103450009BB26385ACE700BF020010000000FFFFD5
:10346000040001002A4631462046FFF7EBFC002805
:1034700038D123681A69636A1A70626A531C6362DE
:10348000238D013B2385638D9BB2013B9BB26385FA
:103490002368596911F0040F8AD01B695370636A5D
:1034A00001336362238D013B2385638D9BB2013B16
:1034B0009BB263857CE7202384F83D30002384F8A9
:1034C0003E3084F83C30AEE60227ACE60227AAE69E
:1034D0000127A8E60127A6E60127A4E60127A2E620
:1034E0000127A0E601279EE690F83D0070472DE9F0
:1034F000F8430646884617461D46FEF749F88146BA
:1035000033689C6838EA04040CBF01240024BC42E0
:1035100012D0B5F1FF3FF3D0FEF73AF8A0EB090067
:10352000A84201D2002DEBD1012386F841300023BF
:1035300086F84030032000E00020BDE8F88300005A
:10354000002800F0BF8038B5044690F84130002BC9
:1035500051D0022284F841202168CB6923F47B6397
:1035600023F00F03CB6123681A626369934263D02F
:10357000E368002B46D11025A368202B00D86D00EE
:10358000012001F027F92369B3F5007F3CD0B0FB9F
:10359000F5F000EB800043006269B3FBF2F3053302
:1035A000494AA2FB0323C3F3C002C2EBD3035B0867
:1035B00011029A1EFD2A41D822690A4321681A4342
:1035C0000A622168CB6923F47B6323F00F036268EE
:1035D000A0680243E0680243A0690243134343F436
:1035E0000063CB61236A012B2ED00020606401238D
:1035F00084F8413038BD80F84030344B4363FDF7E8
:1036000033FDA6E72025B7E7E36853B1AD00B0FB73
:10361000F5F000EB800043006269B3FBF2F3053381
:10362000BEE7ED00B0FBF5F000EB800043006269FF
:10363000B3FBF2F30533B3E70021BAE7636C43F061
:10364000100363640120D5E7214B63632268214B9B
:103650009A421FD04FF04022D36923F47B6323F0BA
:103660000F03D36122681B4B9A4215D04FF04023C1
:1036700002221A622268174B9A4210D04FF040255E
:10368000EB699BB26268B2F5007F0AD0C2B94FF411
:10369000807008E0104ADFE7A3F58063E8E70E4D8D
:1036A000EEE74FF48070B4F808C0A189228B40EA9D
:1036B0000C0001430A43134343F40063EB6194E7B6
:1036C0000020F0E701207047CDCCCCCCD13B0008E6
:1036D000113E0008003800400034004000295ED050
:1036E00038B50446002A5CD094F84030DBB2012B98
:1036F00059D0012384F8403094F84150EDB29D42F6
:1037000010D1032384F8413000236364616223688D
:10371000DB6903F00703032B09D0052B07D02285B3
:10372000628508E0002384F8403002203AE052002D
:1037300092B222856285A36B1C4A1A64A36B1C4A51
:10374000DA63A36B1B4ADA642268238D9BB20C32C6
:10375000616AA06BFEF7C4F8A8B92368DA6912F4AD
:10376000806F03D1DA6942F48062DA6123685A68B3
:1037700012F0020F03D15A6842F002025A6000238D
:1037800084F840300EE0636C43F008036364012367
:1037900084F84130002384F84030284602E00120BC
:1037A0007047012038BD0220FCE700BF313B000814
:1037B000733B0008A13C0008034690F84020D2B2B9
:1037C000012A32D0012280F8402090F84120D2B264
:1037D000032A19D090F84120D2B2042A1DD090F8C3
:1037E0004120D2B2052A14D101684A6822F00302AE
:1037F0004A6001680E4A914215D04FF040214A6854
:1038000022F003024A6004E001684A6822F00202E2
:103810004A60002083F84000704701684A6822F03F
:1038200001024A60F5E70349E9E70220704700BF5B
:103830000038004000340040034690F84020D2B2E7
:10384000012A4CD0012280F8402090F84120D2B2C9
:10385000032A27D090F84120D2B2042A34D090F81D
:103860004120D2B2052A22D101684A6842F00302FF
:103870004A6001681B4A91422CD04FF040214A68AF
:1038800042F003024A601968164A914224D04FF070
:103890004022D16911F4806F09D1D16941F480616E
:1038A000D16104E001684A6842F002024A601A6885
:1038B000D16911F4806F03D1D16941F48061D16184
:1038C000002083F84000704701684A6842F0010216
:1038D0004A60ECE70449D2E7A2F58062D9E702200A
:1038E000704700BF003800400034004070B584B01D
:1038F00004464368B3F5007F02D0002B40F082807D
:10390000A06B48B1FEF721F8054630B1636C43F077
:1039100008036364012500E00025642301220221DD
:103920002046FFF7E4FD30B1636C43F001036364AC
:10393000012584F841506423002280212046FFF7AE
:10394000D6FD30B1636C43F001036364012584F854
:1039500041502268D36923F48063D361002300932C
:1039600023689A680092009A5A6822F002025A600C
:1039700094F84130DBB2052B05D0012384F84130A7
:10398000284604B070BDE06B38B1FDF7DEFF20B112
:10399000636C43F00803636401252268624B9A421A
:1039A00020D04FF04022D36923F48063D3610023F9
:1039B000019322685C4B9A4216D04FF04023DA689C
:1039C00001929A680192019A5A6822F001025A60A3
:1039D000636863B9636C43F040036364012584F852
:1039E0004150CAE7514ADEE7A3F58063E7E7226862
:1039F0004D4B9A4203D04FF04023DB68BDE7A3F55F
:103A00008063FAE7B3F5407F04D0B3F5807F01D03F
:103A10000025B2E7E06B48B1FDF797FF054630B1EE
:103A2000636C43F008036364012500E0002594F80B
:103A30004130DBB2052B17D02268D36923F48063B1
:103A4000D361002303932368DA6803929A68039290
:103A5000039A5A6822F001025A606368B3F5807FC6
:103A60005AD02368DB6888E7A06B38B1FDF76DFF9B
:103A700020B1636C43F0080363640125FDF788FD02
:103A8000064612E0636C43F001036364012584F889
:103A900041500AE0A3F580639B6813F0020F1ED12A
:103AA000FDF776FD801B6428ECD822681E4B9A42F5
:103AB000F0D04FF04023EFE7636C43F00103636401
:103AC000012584F841500AE0A3F580639A6812F05A
:103AD000800F0BD0FDF75CFD801B6428ECD82268BA
:103AE000114B9A42F0D04FF04023EFE7DA6922F40D
:103AF0008062DA610023029322680B4B9A4209D05C
:103B00004FF0402293680293029B536823F0020314
:103B1000536091E7054AF5E7636C43F04003636443
:103B2000012584F8415028E7003800400034004067
:103B300008B5806BFCF7B6FD08BD08B5426A03689E
:103B40001288DA60436A02334362438D9BB2013BC1
:103B50009BB24385438D9BB203B108BD0268536895
:103B600023F0A0035360012380F84130FCF78EFD61
:103B7000F3E708B50346806BDB694BB9026853680D
:103B800023F00203536000234385012380F8413072
:103B9000FCF77CFD08BD704708B50368DA68C36AA6
:103BA0001A80C36A0233C362438E9BB2013B9BB24D
:103BB0004386438E9BB203B108BD0268536823F06D
:103BC00060035360012380F84130FFF7E4FFF3E71F
:103BD00010B584B0044602689368039390F84130AE
:103BE000DBB2042B06D094F84130DBB2032B2CD08F
:103BF00004B010BD039B13F0010F03D0536813F002
:103C0000400F1FD1039B13F0400FECD023685A687C
:103C100012F0200FE7D05A6822F060025A600023A9
:103C200001932368DA6801929B680193019B012349
:103C300084F84130636C43F0020363642046FCF770
:103C40003FFDD0E7FFF7A8FFDCE7039B13F0020F6F
:103C500004D023685B6813F0800F1DD1039B13F021
:103C6000080FC5D023685A6812F0200FC0D05A68D8
:103C700022F0A0025A600023029323689B680293FB
:103C8000029B012384F84130636C43F004036364B6
:103C90002046FCF715FDABE72046FFF74EFFDDE7BA
:103CA00008B5806B0268536823F003035360002358
:103CB00043854386012380F84130436C43F0080379
:103CC0004364FCF7FDFC08BD90F841007047704765
:103CD00008B5436A9A1C426202681B88D360438D10
:103CE0009BB2013B9BB24385438D9BB23BB90268BB
:103CF000536823F0A0035360438E9BB203B108BD09
:103D0000012380F84130FFF7E2FFF8E708B50268C9
:103D1000154B9A421CD04FF04023DA68C36A991CB5
:103D2000C1621A80438E9BB2013B9BB24386438E95
:103D30009BB263B902680C4B9A420CD04FF0402200
:103D4000536823F060035360438D9BB22BB108BDD1
:103D5000A3F58063E1E7054AF2E7012380F84130EB
:103D6000FFF7B5FFF3E700BF003800400034004024
:103D700008B5436A9A1C42621A880168134B99423B
:103D800018D04FF04023DA60438D9BB2013B9BB2C9
:103D90004385438D9BB263B902680C4B9A420CD0A9
:103DA0004FF04022536823F0A0035360438E9BB230
:103DB0002BB108BDA3F58063E5E7054AF2E70123CF
:103DC00080F84130FFF783FFF3E700BF0038004081
:103DD0000034004008B50368DA68C36A991CC16200
:103DE0001A80438E9BB2013B9BB24386438E9BB2AB
:103DF0003BB90268536823F060035360438D9BB264
:103E000003B108BD012380F84130FFF760FFF8E7F8
:103E100010B586B0044603689A680592704A9342CA
:103E20006FD04FF04022916804915B680393536810
:103E300002936368B3F5007F01D0002B70D1059B1E
:103E400013F0020F03D0039B13F0800F5CD1049B8F
:103E500013F0010F03D0029B13F0400F58D1049BC5
:103E600013F0400F24D0029B13F0200F20D02268C3
:103E70005B4B9A4250D04FF04022536823F06003CE
:103E800053602268536823F0A0035360002300931B
:103E90002368DA6800929B680093009B012384F8F2
:103EA0004130636C43F0020363642046FCF708FC76
:103EB000059B13F0080F22D0039B13F0200F1ED098
:103EC0002268536823F0A00353602268444B9A424F
:103ED00024D04FF04022536823F060035360002346
:103EE000019323689B680193019B012384F841306F
:103EF000636C43F0040363642046FCF7E1FB06B007
:103F000010BDA2F580628EE72046FFF7E1FE9EE736
:103F10002046FFF7FBFEA2E7324AAEE7314ADAE776
:103F2000049B13F0020F03D0029B13F0800F4AD1C1
:103F3000059B13F0010F03D0039B13F0400F46D1F4
:103F4000059B13F0400F1CD0039B13F0200F18D0DB
:103F50002268536823F0600353602268204B9A4222
:103F600039D04FF04022536823F0A003536001235F
:103F700084F84130636C43F0020363642046FCF72D
:103F80009FFB049B13F0080FB9D0029B13F0200F86
:103F9000B5D02268124B9A421FD04FF0402253688E
:103FA00023F0A00353602268536823F0600353603A
:103FB000012384F84130636C43F0040363642046BA
:103FC000FCF77EFB9BE72046FFF7D2FEB0E72046DA
:103FD000FFF700FFB4E7034AC5E7024ADFE700BF87
:103FE0000038004000340040002800F0E08170B547
:103FF00082B00446036813F0010F3BD09F4B9B68CF
:1040000003F00C03042B2CD09C4B9B6803F00C0397
:10401000082B21D06368B3F5803F4FD0B3F5A02FB4
:1040200052D0964B1A6822F480321A601A6822F431
:1040300080221A606368002B50D0FDF7A9FA05466C
:104040008E4B1B6813F4003F14D1FDF7A1FA401BFF
:104050006428F5D90320B1E1884B5B6813F4800F25
:10406000D8D0864B1B6813F4003F03D06368002B45
:1040700000F09F81236813F0020F54D07F4B9B68A0
:1040800013F00C0F3ED07D4B9B6803F00C03082B04
:1040900033D0E368002B68D0794B01221A60FDF71A
:1040A00077FA0546754B1B6813F0020F54D1FDF7E4
:1040B0006FFA401B0228F5D903207FE16F4A13688D
:1040C00043F480331360B5E76C4B1A6842F48022E6
:1040D0001A601A6842F480321A60ABE7FDF758FAAA
:1040E0000546664B1B6813F4003FC3D0FDF750FA3A
:1040F000401B6428F5D9032060E1604B5B6813F432
:10410000800FC6D15D4B1B6813F0020F03D0E3682C
:10411000012B40F05081594A136823F0F8032169BC
:1041200043EAC1031360236813F0080F42D06369A8
:104130006BB3534B0122C3F8802EFDF729FA0546D5
:104140004E4B5B6F13F0020F34D1FDF721FA401B89
:104150000228F5D9032031E1484A136823F0F80317
:10416000216943EAC1031360DDE7454B00221A6071
:10417000FDF70EFA0546414B1B6813F0020FD2D033
:10418000FDF706FA401B0228F5D9032016E13C4B47
:104190000022C3F8802EFDF7FBF90546374B5B6F15
:1041A00013F0020F06D0FDF7F3F9401B0228F5D9F2
:1041B000032003E1236813F0040F77D02F4B1B6C0F
:1041C00013F0805F33D1002301932C4B1A6C42F023
:1041D00080521A641B6C03F080530193019B0125EC
:1041E000284B1B6813F4807F23D0A368012B34D0A5
:1041F000052B38D0214B1A6F22F001021A671A6F73
:1042000022F004021A67A368002B3DD0FDF7C0F925
:1042100006461A4B1B6F13F0020F46D1FDF7B8F993
:10422000801B41F288339842F3D90320C6E0002571
:10423000D6E7144A136843F480731360FDF7A8F9B6
:104240000646104B1B6813F4807FCED1FDF7A0F912
:10425000801B0228F5D90320B0E0084A136F43F011
:1042600001031367CFE7054B1A6F42F004021A6788
:104270001A6F42F001021A67C5E700BF003802401A
:104280000000474200700040FDF782F90646524B9D
:104290001B6F13F0020F08D0FDF77AF9801B41F273
:1042A00088339842F3D9032088E0EDB9A369002B45
:1042B00000F08380484A926802F00C02082A51D02C
:1042C000022B17D0454B00221A66FDF761F9044610
:1042D000414B1B6813F0007F42D0FDF759F9001BDA
:1042E0000228F5D9032069E03B4A136C23F0805380
:1042F0001364DBE7394B00221A66FDF749F90546DE
:10430000354B1B6813F0007F06D0FDF741F9401BC9
:104310000228F5D9032051E0E369226A1343626A57
:1043200043EA8213A26A5208013A43EA0243E26A6C
:1043300043EA0263284A5360284B01221A66FDF7BC
:1043400027F90446244B1B6813F0007F06D1FDF7C4
:104350001FF9001B0228F5D903202FE000202DE0D3
:1043600000202BE0012B2BD01B4B5B6803F480015A
:10437000E269914226D103F03F02216A8A4223D1A9
:10438000616A47F6C0721A40B2EB811F1ED103F476
:104390004031A26A5208013AB1EB024F18D103F042
:1043A0007063E26AB3EB026F14D1002006E00120D3
:1043B0007047012002E0012000E0002002B070BD43
:1043C0000120FBE70120F9E70120F7E70120F5E7ED
:1043D0000120F3E70120F1E70038024000004742E6
:1043E00008B5264B9B6803F00C03042B41D0082B27
:1043F00041D1224B5A6802F03F025B6813F4800FF0
:1044000012D01E4B5968C1F388111D480023A1FB2F
:104410000001FBF7D5FE194B5B68C3F30143013381
:104420005B00B0FBF3F027E0144B5868C0F3881032
:104430004FEA401CBCEB000C6EEB0E0E4FEA8E13E5
:1044400043EA9C634FEA8C11B1EB0C0163EB0E0362
:10445000DB0043EA5173C90011EB000C43F1000388
:10446000990200234FEA8C2041EA9C51FBF7A8FEF9
:10447000D1E7034800E0034808BD00BF0038024010
:1044800040787D010024F400002800F09B8070B586
:104490000D4604464F4B1B6803F007038B4208D2BE
:1044A000CBB24C4A1370136803F007038B4240F001
:1044B0008B80236813F0020F17D013F0040F04D081
:1044C000454A936843F4E0539360236813F0080F60
:1044D00004D0414A936843F4604393603E4A936832
:1044E00023F0F003A1680B439360236813F0010FDE
:1044F00032D06368012B21D09A1E012A25D9364A71
:10450000126812F0020F61D033498A6822F0030268
:1045100013438B60FDF73CF806462F4B9B6803F076
:104520000C036268B3EB820F16D0FDF731F8801BE5
:1045300041F288339842F0D9032042E0264A1268BB
:1045400012F4003FE0D101203BE0234A126812F050
:10455000007FD9D1012034E01E4B1B6803F0070314
:10456000AB4207D9EAB21B4B1A701B6803F0070372
:10457000AB422DD1236813F0040F06D0164A93687E
:1045800023F4E053E1680B439360236813F0080FB2
:1045900007D0114A936823F46043216943EAC103B9
:1045A0009360FFF71DFF0C4B9B68C3F303130B4A8B
:1045B000D35CD8400A4B18600A4B1868FCF79CFF84
:1045C000002070BD012070470120FAE70120F8E7C4
:1045D0000120F6E7003C02400038024020A5000818
:1045E0003800002044000020014B1868704700BFCD
:1045F0003800002008B5FFF7F7FF044B9B68C3F3B2
:104600008223034AD35CD84008BD00BF0038024073
:1046100018A5000830B583B00446036813F0050FF1
:104620000ED1236813F0020F38D1236813F0080F5E
:1046300000F09D80227D4F4BC3F8E021002097E0E1
:104640004D4B00229A66FCF7A3FF05464B4B1B68B7
:1046500013F0006F06D0FCF79BFF431B022BF5D92C
:10466000032085E06368A26843EA8213E26843EAB4
:104670000273424AC2F884303F4B01229A66FCF72B
:1046800087FF05463D4B1B6813F0006FC9D1FCF74F
:104690007FFF401B0228F5D9032069E00023019326
:1046A000364B1A6C42F080521A641B6C03F0805334
:1046B0000193019B324A136843F480731360FCF743
:1046C00067FF05462E4B1B6813F4807F06D1FCF76D
:1046D0005FFF431B022BF5D9032049E0274B1B6FDB
:1046E00013F4407314D0226902F440729A420FD03E
:1046F000224B1A6F22F440721F490120C1F8400E6C
:104700000020C1F8400E1A671B6F13F0010F12D181
:10471000236903F44072B2F5407F1DD0174A9368B5
:1047200023F4F813936015490B6F2269C2F30B024F
:1047300013430B6779E7FCF72BFF05460F4B1B6F05
:1047400013F0020FE4D1FCF723FF401B41F2883342
:104750009842F3D903200BE008498A6822F4F81242
:1047600023F0704323F4407313438B60DBE7002096
:1047700003B030BD001047420000474200380240FD
:104780000070004003230360114BD3F88420C2F370
:1047900088128260D3F88420C2F30272C260D3F818
:1047A000842002F03F024260996801F4F8111A6F08
:1047B00002F440720A430261D3F88C3013F0807F18
:1047C00002D100230375704701230375704700BFB2
:1047D00000380240012801D000207047174B9B6829
:1047E00013F4000303D0012B25D115487047134B58
:1047F0005B6813F4800F15D0104BD3F8842002F0BF
:104800003F02104BB3FBF2F30C4AD2F88400C0F322
:10481000881003FB00F0D2F88430C3F30273B0FBBE
:10482000F3F07047054BD3F8842002F03F02064BAB
:10483000B3FBF2F3E8E70020704700BF0038024006
:104840000080BB0040787D010024F40082B000238A
:104850000193019B01330193019A0F4B9A4215D8A2
:104860000369002BF5DA00230193036943F0010388
:104870000361019B01330193019A074B9A4208D8C7
:10488000036913F0010FF4D1002000E0032002B00F
:1048900070470320FBE700BF400D030084B010B554
:1048A000044603A880E80E00089B012B1FD1A36BD0
:1048B00023F48033A363E36823F4840323F04003E9
:1048C000E360E36823F44013E3600F9B012B09D0FE
:1048D0002046FFF7BBFF069B012B1BD0BDE8104015
:1048E00004B07047E36843F48013E360F0E7E368E3
:1048F00043F04003E3602046FFF7A8FF0C9B23B979
:10490000A36B43F48033A363E5E7A36B23F4803305
:10491000A363E0E7A36843F00603A360A36843F042
:104920002003A360DAE7836843F00103836000207B
:104930007047836823F00103836000207047000004
:1049400082B000230193019B01330193019A0F4B25
:104950009A4215D80369002BF5DA002301938901E7
:1049600041F020010161019B01330193019A074B42
:104970009A4208D8036913F0200FF4D1002000E018
:10498000032002B070470320FBE700BF400D030087
:1049900082B000230193019B01330193019A0E4BD6
:1049A0009A4213D80369002BF5DA002301931023F0
:1049B0000361019B01330193019A074B9A4208D886
:1049C000036913F0100FF4D1002000E0032002B0BF
:1049D00070470320FBE700BF400D030010B59DF8B2
:1049E000084084B903334FEA930E4FF0000C08E0FF
:1049F00000EB023303F5805351F8044B1C600CF1BB
:104A0000010CF445F4D3002010BD10B584460846CF
:104A10004FEA920E02F00302002305E00CF58051EC
:104A2000096840F8041B01337345F7D37AB10CF5DC
:104A3000805CDCF800400021CBB2DB0024FA03F3F9
:104A400000F8013B0131013A92B2002AF4D110BDC5
:104A50004269806910407047406900F0010070476A
:104A600038B50546C36823F0C043C360012913D09D
:104A700019BBC36843F08043C36000240120FCF7E6
:104A80008DFD01342846FFF7E7FF08B1312CF5D939
:104A9000322C14D0002038BDC36843F00053C360EB
:104AA00000240120FCF77AFD01342846FFF7D4FFEB
:104AB0000128EDD0312CF4D9EAE70120EBE7012001
:104AC000E9E7000084B038B5044605A880E80E0088
:104AD0000023C4F8003EA36B43F40013A363A36B4D
:104AE00023F40023A363A36B23F48023A363E36B6A
:104AF00013F4807F10D0079B012B06D0D4F800342C
:104B000023F00403C4F800340CE0D4F8003443F07C
:104B10000403C4F8003405E0D4F8003423F004039F
:104B2000C4F8003410212046FFF70AFF054600B103
:104B300001252046FFF72CFF00B10125002209E0E6
:104B400004EB42134FF0FF31C3F808150021C3F8FE
:104B50000C150132069B9342F2D80023A3614FF05B
:104B6000FF336361E36B13F4807F17D04FF400735E
:104B7000636203F18073A3620D4BC4F80031089B9C
:104B80001BB9A36943F01003A361A269094B134346
:104B9000A3612846BDE8384004B0704780236362B3
:104BA00003F5C003A362044BC4F80031E7E700BF7C
:104BB0000003E000080020A3E000400000F5806C46
:104BC000D0F8003423F00303C0F80034D0F80034E8
:104BD00001F003021343C0F80034012903D0022975
:104BE00006D0002070474BF68033CCF80430F8E74D
:104BF00041F27073CCF80430F3E730B583B004466B
:104C000000250195D0F840340193019B23F02E0339
:104C10000193019B43F48073C0F840346420FCF797
:104C2000BDFC019B23F48073C4F840340A20FCF7D8
:104C3000B5FC284603B030BD82B000230193D0F804
:104C400040340193019B23F02E030193019B13F445
:104C5000805F01D101290CD0019B13F4805F05D046
:104C600021B9019B23F48053C0F84034002002B0E6
:104C70007047019B43F48053C0F84034ECE782B0A6
:104C800000230193D0F8403401930198C0F34140D0
:104C900002B0704700F58060806880B270472DE9EF
:104CA000F84391461C469DF8245000EB411606F54A
:104CB000A0634FF0FF329A60032D75D8DFE805F04E
:104CC0000266021840F29D42DA6019F0800F09D1A5
:104CD000C26B12F4807F69D0DA6842F06002DA6059
:104CE00000270CE0DA6842F48072DA60002706E000
:104CF00040F29D62DA6019F0800F41D10027DA6836
:104D000042F00202DA60D0F8183401F00F010122FB
:104D10008A401343C0F81834836943F000738361F9
:104D200019F0800F44D14FF00008FFF7A8FF9DF85D
:104D30002030022B3FD00022A30503F0FE534FEAA0
:104D4000C92909F4F04943EA0903A90401F44021FF
:104D50000B43BDF82810C1F30A010B4343EA0803D3
:104D60001343C6F80035032D01D0012D05D1D6F827
:104D7000003543F00053C6F800353846BDE8F883E7
:104D8000DA6842F48072DA600027B8E740F2252240
:104D9000DA6019F0800F01D10027B0E7DA6842F439
:104DA000C072DA600027AAE70127A8E70027A6E774
:104DB0004FF40048B9E7022802D04FF40032BBE7B5
:104DC0000022B9E700F58060406980B2704710B4F6
:104DD00083B00023019300EB411101F5A06CD1F8E1
:104DE0000035C3F38143D1F80025846814F0200F07
:104DF00002D0D20F002A51D023B3022B22D0D1F8F7
:104E0000003543F08043C1F80035D0F8103413F476
:104E10007F0F47D1D1F8003523F00043C1F80035AA
:104E2000D1F8003543F00043C1F80035019B013350
:104E30000193019BB3F57A7F30D8DCF80030002B6A
:104E4000F4DB2BE0D1F8003543F08043C1F80035A6
:104E5000836813F0200F21D1C36A13F47F0F17D199
:104E6000D1F8003523F00043C1F80035D1F8003502
:104E700043F00043C1F80035019B01330193019BCE
:104E8000B3F57A7F0AD8DCF80030002BF4DB05E0BC
:104E9000D1F8003543F00043C1F80035002003B0DD
:104EA00010BC7047D1F8003543F00043C1F800351D
:104EB000F4E7000000EB4110064AC0F81025D0F8D6
:104EC000003523F0804343F00043C0F80035002054
:104ED000704700BF0000088030B585B04B78C46BC8
:104EE00014F4807F07D00C792CB9012A16D012B99E
:104EF0004C79012C1FD04C690CB30D8904EB050CC7
:104F00000CF1FF3CBCFBF5FC1FFA8CFCBCF5807F70
:104F100017D92D020D614FF4807C12E0CC790CB1D1
:104F2000022CE4D100EB4314D4F80C5525F07005A5
:104F3000C4F80C55DBE74978FFF7BCFF6FE04FF092
:104F4000010CCD78002D51D00C8904FB0CF40C61C0
:104F50000C69C4F31204394D05EACC4C44EA0C0444
:104F600091F80AC04FEA4C7C0CF0C04C00EB4313A4
:104F700044EA0C04C3F8104512B1CC68C3F81445D8
:104F800000F58065AC6814F0010F0CBF4FF0010C08
:104F90004FF0000CD3F8004524F00054C3F800454E
:104FA000D3F8004544EA4C74C3F80045D3F80045F3
:104FB0000394039C24F080440394CC78C4B1039CF4
:104FC00044F400440394039C44F000440394039C81
:104FD000C3F800451ABBCB780BBB4B69FBB1CA7950
:104FE000032A15D8DFE802F0091E091E0C61AFE79D
:104FF000039C24F400440394E5E70333C26A92B2AD
:10500000C3F38F039A4203D2836943F02003836181
:10501000002300938B8A4A78C968FFF7DFFC0020E1
:1050200005B030BD03332A6992B2C3F38F039A42AD
:10503000EED2836943F080638361E9E70000F81FE3
:1050400030B583B0044600230193FFF772FC1021B2
:105050002046FFF775FC054600B101252046FFF705
:1050600097FC00B1012500220AE004EB4211D1F8BF
:10507000003523F0802343F08043C1F8003501322E
:105080000F2AF2D9002100E001310F2916D804EBD4
:10509000411000F5A062D0F8003523F4004343F03E
:1050A0004043C0F80035019B01330193019BB3F5E8
:1050B0007A7FE9D81368002BF5DBE5E74FF0FF3383
:1050C000C4F8143463612046FFF72DFC284603B072
:1050D00030BD000008B50349034803F051FE034BFF
:1050E000187008BD4420002038A500084820002082
:1050F000002070470020704708B50146034800F0C3
:105100005CFB08B1002008BD0120FCE784220020E0
:1051100010B590B0044600930B4601460D4800F0D0
:1051200084FB08B910B010BD03AA2146094800F05D
:1051300057FB9DF81930282B07D03A2B07D0042BAA
:1051400001D00120EEE70320ECE70320EAE703208B
:10515000E8E700BF8422002030B58FB00C4615462A
:10516000032924D8DFE801F002050E1808460FB025
:1051700030BD01AA0146124800F032FBC8B9029BBB
:105180002B60F4E701AA01460D4800F029FB90B915
:10519000BDF80C302B60EAE701AA0146084800F090
:1051A0001FFB50B9BDF80C305B0A2B60DFE7042011
:1051B000DDE72046DBE70120D9E70120D7E700BF84
:1051C0008422002010B590B0044600930B4601469F
:1051D000104800F075FB08B910B010BD03AA2146B5
:1051E0000C4800F0FDFA9DF81930272B0CD005D99A
:1051F000282B0BD03A2B0BD10320EDE7042B01D049
:105200000120E9E70320E7E70220E5E70320E3E7E1
:105210000120E1E7842200200020704770B5D0F81B
:105220007C33DE69337B23B1012B40F045810020C4
:1052300070BD0446B6F8F8103378994280F0318199
:10524000342303FB0163012283F8912093F890300B
:10525000082B00F23381DFE813F00900310144002C
:105260009E001500D300310131011F01342303FBDF
:105270000163042283F89020D0F8C433C6F8FC30D0
:105280000120D5E7342201FB02F298323244073282
:10529000C9B200F05CFD034638B9B6F8F8203421F5
:1052A00001FB0262022182F89010022B03D0042B32
:1052B0000BD00120BCE7B6F8F830342202FB0363C0
:1052C000052283F890200120B2E7B6F8F8303422A6
:1052D00002FB0363012083F89000022283F89120EF
:1052E000A6E7C9B200F0C5FC0246C0B9B6F8F8306E
:1052F000342101FB036191F89210B1B1342101FB1B
:105300000361012081F8C100342101FB0363032103
:1053100083F89010002183F8911083F89210022AEC
:105320000AD0042A2BD0012082E7342101FB03613B
:10533000002081F8C100E7E7B6F8F830342202FB1C
:10534000036292F89220022A12D0342202FB0362F6
:10535000012182F8C110342202FB0363052283F885
:105360009020012083F89100022283F892205FE7C9
:10537000342202FB0362002182F8C110EBE7B6F889
:10538000F830342202FB0363012083F890000222EC
:1053900083F891204CE7342201FB02F29032324430
:1053A0000432C9B200F08CFC70B9B6F8F83034227F
:1053B00002FB0362012082F89000002182F8911024
:1053C0000344A6F8F83033E7022803D004280BD0B2
:1053D00001202DE7B6F8F830342202FB03630522E2
:1053E00083F89020012023E7B6F8F830342202FB3E
:1053F0000363012083F89000022283F8912017E7CD
:10540000342201FB02F2983232440432C9B200F075
:1054100004FD024698B9B6F8F830342101FB036167
:1054200091F89C10062910D002290ED0342101FBDE
:105430000361012081F890000344A6F8F830022AA5
:1054400014D0042A1CD00120F2E6D4F8C413D6F8F4
:10545000FC00091A42F20F708142E7D8342202FBA5
:105460000363022283F890200120E1E6B6F8F830C9
:10547000342202FB0363082283F890200120D7E640
:10548000B6F8F830342202FB0363012083F8900061
:10549000022283F89120CBE60131A6F8F810012012
:1054A000C6E60023A6F8F83001253573D0F8D433CA
:1054B000022198472846BBE60120B9E60120B7E65D
:1054C00010B5D0F87C33DC69A37B022B04D0032B0E
:1054D00025D00BB1012010BD214600F07FFA032832
:1054E00002D00028F7D101E00020207021780229A5
:1054F00013D80131C9B2217000238B42EBD2342280
:1055000002FB03424FF0020C82F892C04FF0000CF5
:1055100082F8C1C00133DBB2EFE70221EBE70021E3
:1055200001F0C5FB18B9E37BA3730120D3E7012089
:10553000D1E738B50446D0F87C33DD69697969B9BB
:105540002979A1B9D4F87C33D86928B103F07AFF5E
:10555000D4F87C330022DA61002038BD01F039FC38
:105560006979204601F04DFC00236B71E8E7204685
:1055700001F02FFC2979204601F043FC00232B7118
:10558000E0E7F0B585B00446D0F87C13502306223E
:10559000097900F0C3FE012800F284800546014627
:1055A000204600F0B1FE074600287FD1D4F87C6386
:1055B0004FF4807003F03EFFF061D4F87C33DE6975
:1055C000002E75D04FF480720021304604F008FAA6
:1055D0001A2303FB054393F84E2393F94E33002B14
:1055E00050DBB2711A2303FB0543B3F85033338108
:1055F0001A2303FB054393F8562393F95633002BE4
:1056000048DBB2711A2303FB0545B5F858333381E3
:10561000B179204601F0E2FB7071F179204601F08A
:10562000DDFB3071204600F0E7F9B279002A41D065
:105630003389002B40D0717902930223019394F8AF
:105640001D33009394F81C33204601F0B2FBF2792D
:10565000A2B37389A3B3317902930223019394F81F
:105660001D33009394F81C33204601F0A2FB002266
:105670003179204603F0F4FC00227179204603F0D2
:10568000EFFC10E0F2711A2303FB0543B3F850332B
:105690007381ADE7F2711A2303FB0543B3F8583366
:1056A0007381B5E70227384605B0F0BD0227FAE757
:1056B0000227F8E70327F6E70327F4E70327F2E7D3
:1056C0000327F0E730B583B00C46D0F87C33DD69B2
:1056D000342303FB015393F89030062B06D0072B9D
:1056E00027D0052B48D0012003B030BD0022009206
:1056F000134600F01EFC30B9342303FB045301228F
:1057000083F89020F0E7022803D0042809D0012074
:10571000EAE7342303FB0453052283F89020012099
:10572000E2E7342303FB0453082283F8902002208D
:10573000DAE700220092134600F0B5FB30B93423BB
:1057400003FB0453012283F89020CDE7022803D005
:10575000042809D00120C7E7342303FB04530522A2
:1057600083F890200120BFE7342303FB0453082271
:1057700083F890200220B7E7342201FB02F298322E
:105780002A44043200F049FB0346A0B9342202FB4C
:105790000452012182F89010022082F89100022B1D
:1057A000A2D0042BA0D1342303FB0455082385F891
:1057B0009030022098E70120F1E7D0F87C33DA69D5
:1057C0000378DBB20B2B01D000207047342303FB9E
:1057D000012292F891300BB10020704701207047F0
:1057E000D0F87C33DB690078C0B20B2801D00220EE
:1057F000704710B5342000FB01F190310B4403F1E8
:105800003004D3F800E0D3F804C09868D968C2F82F
:1058100000E0C2F804C09060D16010331032A3429F
:10582000EFD11B681360002010BD2DE9F04182B05C
:105830000D46089ED0F87C13CF6990F82013C9B3A9
:1058400004460178C9B20B2936D1342101FB057118
:1058500091F89010012901D002202EE00620387323
:10586000342101FB057181F89000A7F8FA500096E9
:105870002946204600F05DFBD4F8C4832946204623
:10588000FFF720FF012811D1D4F8C423A2EB0802AE
:1058900042F2107306FB03F39A4203D894F82033C4
:1058A000002BEBD101233B73022006E001233B7365
:1058B000002002E0022000E0022002B0BDE8F081FA
:1058C0002DE9F04182B00D46089ED0F87C13CF69D7
:1058D00090F82013C9B304460178C9B20B2936D118
:1058E000342101FB057191F89010012901D00220AB
:1058F0002EE007203873342101FB057181F89000F8
:10590000A7F8FA5000962946204600F0CCFAD4F8C1
:10591000C48329462046FFF7D5FE012811D1D4F8CB
:10592000C423A2EB080242F2107306FB03F39A426F
:1059300003D894F82033002BEBD101233B730220D2
:1059400006E001233B73002002E0022000E0022079
:1059500002B0BDE8F081000010B5D0F87C33DC69FE
:10596000217903F063FB0D2801D0022010BDA26F46
:105970000A4B9A4201D00220F8E7E26FA36D9A42E7
:1059800001D00120F2E794F884000028EED001282D
:10599000ECD00228EAD00120E8E700BF555342537B
:1059A00008B5D0F87C33D9691AB1012A05D0022094
:1059B00008BDC97901F07BF9FAE7897901F077F937
:1059C000F6E708B521220274FF22427400214182C9
:1059D0008182C1820A4601F0AFF808BD08B5A12254
:1059E0000274FE2242740022428282820122C2821A
:1059F00001F0A2F808BD0000D0F87C33DB69054A4D
:105A00005A65054A9A65012283F8502083F852208E
:105A100000207047555342435040302070B582B04B
:105A20000546D0F87C33DE6996F85040631E0A2B99
:105A300000F21D81DFE813F00B001B0042004D0057
:105A400077008300B600C100DD00EF00110186F889
:105A50006110022386F850307379012200921F22D0
:105A600006F1540101F06CF9204602B070BD717965
:105A700003F0E2FA0446012805D0022815D00528D3
:105A800017D00124F0E7F36D5BB196F96030002B7D
:105A900003DB052386F85030E6E7032386F8503011
:105AA000E2E7072386F85030DEE7012486F850400D
:105AB000DAE70A2386F850300124D5E73379728972
:105AC000D6F88C1001F052F9042386F850300124E6
:105AD000CAE7317903F0B0FA0446012803D005285B
:105AE0001CD00124C0E7F36D728993420CD9D6F81B
:105AF0008C101144C6F88C109B1AF365F36D33B902
